{
  "contractName": "CudosToken",
  "abi": [
    {
      "inputs": [],
      "payable": false,
      "stateMutability": "nonpayable",
      "type": "constructor"
    },
    {
      "anonymous": false,
      "inputs": [
        {
          "indexed": true,
          "internalType": "address",
          "name": "owner",
          "type": "address"
        },
        {
          "indexed": true,
          "internalType": "address",
          "name": "spender",
          "type": "address"
        },
        {
          "indexed": false,
          "internalType": "uint256",
          "name": "value",
          "type": "uint256"
        }
      ],
      "name": "Approval",
      "type": "event"
    },
    {
      "anonymous": false,
      "inputs": [
        {
          "indexed": true,
          "internalType": "address",
          "name": "from",
          "type": "address"
        },
        {
          "indexed": true,
          "internalType": "address",
          "name": "to",
          "type": "address"
        },
        {
          "indexed": false,
          "internalType": "uint256",
          "name": "value",
          "type": "uint256"
        }
      ],
      "name": "Transfer",
      "type": "event"
    },
    {
      "anonymous": false,
      "inputs": [
        {
          "indexed": true,
          "internalType": "address",
          "name": "account",
          "type": "address"
        }
      ],
      "name": "WhitelistAdminAdded",
      "type": "event"
    },
    {
      "anonymous": false,
      "inputs": [
        {
          "indexed": true,
          "internalType": "address",
          "name": "account",
          "type": "address"
        }
      ],
      "name": "WhitelistAdminRemoved",
      "type": "event"
    },
    {
      "anonymous": false,
      "inputs": [
        {
          "indexed": true,
          "internalType": "address",
          "name": "account",
          "type": "address"
        }
      ],
      "name": "WhitelistedAdded",
      "type": "event"
    },
    {
      "anonymous": false,
      "inputs": [
        {
          "indexed": true,
          "internalType": "address",
          "name": "account",
          "type": "address"
        }
      ],
      "name": "WhitelistedRemoved",
      "type": "event"
    },
    {
      "constant": false,
      "inputs": [
        {
          "internalType": "address",
          "name": "account",
          "type": "address"
        }
      ],
      "name": "addWhitelistAdmin",
      "outputs": [],
      "payable": false,
      "stateMutability": "nonpayable",
      "type": "function"
    },
    {
      "constant": false,
      "inputs": [
        {
          "internalType": "address",
          "name": "account",
          "type": "address"
        }
      ],
      "name": "addWhitelisted",
      "outputs": [],
      "payable": false,
      "stateMutability": "nonpayable",
      "type": "function"
    },
    {
      "constant": true,
      "inputs": [
        {
          "internalType": "address",
          "name": "owner",
          "type": "address"
        },
        {
          "internalType": "address",
          "name": "spender",
          "type": "address"
        }
      ],
      "name": "allowance",
      "outputs": [
        {
          "internalType": "uint256",
          "name": "",
          "type": "uint256"
        }
      ],
      "payable": false,
      "stateMutability": "view",
      "type": "function"
    },
    {
      "constant": false,
      "inputs": [
        {
          "internalType": "address",
          "name": "spender",
          "type": "address"
        },
        {
          "internalType": "uint256",
          "name": "amount",
          "type": "uint256"
        }
      ],
      "name": "approve",
      "outputs": [
        {
          "internalType": "bool",
          "name": "",
          "type": "bool"
        }
      ],
      "payable": false,
      "stateMutability": "nonpayable",
      "type": "function"
    },
    {
      "constant": true,
      "inputs": [
        {
          "internalType": "address",
          "name": "account",
          "type": "address"
        }
      ],
      "name": "balanceOf",
      "outputs": [
        {
          "internalType": "uint256",
          "name": "",
          "type": "uint256"
        }
      ],
      "payable": false,
      "stateMutability": "view",
      "type": "function"
    },
    {
      "constant": true,
      "inputs": [],
      "name": "decimals",
      "outputs": [
        {
          "internalType": "uint8",
          "name": "",
          "type": "uint8"
        }
      ],
      "payable": false,
      "stateMutability": "view",
      "type": "function"
    },
    {
      "constant": false,
      "inputs": [
        {
          "internalType": "address",
          "name": "spender",
          "type": "address"
        },
        {
          "internalType": "uint256",
          "name": "subtractedValue",
          "type": "uint256"
        }
      ],
      "name": "decreaseAllowance",
      "outputs": [
        {
          "internalType": "bool",
          "name": "",
          "type": "bool"
        }
      ],
      "payable": false,
      "stateMutability": "nonpayable",
      "type": "function"
    },
    {
      "constant": false,
      "inputs": [
        {
          "internalType": "address",
          "name": "spender",
          "type": "address"
        },
        {
          "internalType": "uint256",
          "name": "addedValue",
          "type": "uint256"
        }
      ],
      "name": "increaseAllowance",
      "outputs": [
        {
          "internalType": "bool",
          "name": "",
          "type": "bool"
        }
      ],
      "payable": false,
      "stateMutability": "nonpayable",
      "type": "function"
    },
    {
      "constant": true,
      "inputs": [
        {
          "internalType": "address",
          "name": "account",
          "type": "address"
        }
      ],
      "name": "isWhitelistAdmin",
      "outputs": [
        {
          "internalType": "bool",
          "name": "",
          "type": "bool"
        }
      ],
      "payable": false,
      "stateMutability": "view",
      "type": "function"
    },
    {
      "constant": true,
      "inputs": [
        {
          "internalType": "address",
          "name": "account",
          "type": "address"
        }
      ],
      "name": "isWhitelisted",
      "outputs": [
        {
          "internalType": "bool",
          "name": "",
          "type": "bool"
        }
      ],
      "payable": false,
      "stateMutability": "view",
      "type": "function"
    },
    {
      "constant": true,
      "inputs": [],
      "name": "name",
      "outputs": [
        {
          "internalType": "string",
          "name": "",
          "type": "string"
        }
      ],
      "payable": false,
      "stateMutability": "view",
      "type": "function"
    },
    {
      "constant": false,
      "inputs": [
        {
          "internalType": "address",
          "name": "account",
          "type": "address"
        }
      ],
      "name": "removeWhitelisted",
      "outputs": [],
      "payable": false,
      "stateMutability": "nonpayable",
      "type": "function"
    },
    {
      "constant": false,
      "inputs": [],
      "name": "renounceWhitelistAdmin",
      "outputs": [],
      "payable": false,
      "stateMutability": "nonpayable",
      "type": "function"
    },
    {
      "constant": false,
      "inputs": [],
      "name": "renounceWhitelisted",
      "outputs": [],
      "payable": false,
      "stateMutability": "nonpayable",
      "type": "function"
    },
    {
      "constant": true,
      "inputs": [],
      "name": "symbol",
      "outputs": [
        {
          "internalType": "string",
          "name": "",
          "type": "string"
        }
      ],
      "payable": false,
      "stateMutability": "view",
      "type": "function"
    },
    {
      "constant": true,
      "inputs": [],
      "name": "totalSupply",
      "outputs": [
        {
          "internalType": "uint256",
          "name": "",
          "type": "uint256"
        }
      ],
      "payable": false,
      "stateMutability": "view",
      "type": "function"
    },
    {
      "constant": true,
      "inputs": [],
      "name": "transfersEnabled",
      "outputs": [
        {
          "internalType": "bool",
          "name": "",
          "type": "bool"
        }
      ],
      "payable": false,
      "stateMutability": "view",
      "type": "function"
    },
    {
      "constant": false,
      "inputs": [
        {
          "internalType": "address",
          "name": "recipient",
          "type": "address"
        },
        {
          "internalType": "uint256",
          "name": "amount",
          "type": "uint256"
        }
      ],
      "name": "transfer",
      "outputs": [
        {
          "internalType": "bool",
          "name": "",
          "type": "bool"
        }
      ],
      "payable": false,
      "stateMutability": "nonpayable",
      "type": "function"
    },
    {
      "constant": false,
      "inputs": [
        {
          "internalType": "address",
          "name": "sender",
          "type": "address"
        },
        {
          "internalType": "address",
          "name": "recipient",
          "type": "address"
        },
        {
          "internalType": "uint256",
          "name": "amount",
          "type": "uint256"
        }
      ],
      "name": "transferFrom",
      "outputs": [
        {
          "internalType": "bool",
          "name": "",
          "type": "bool"
        }
      ],
      "payable": false,
      "stateMutability": "nonpayable",
      "type": "function"
    },
    {
      "constant": false,
      "inputs": [],
      "name": "toggleTransfers",
      "outputs": [],
      "payable": false,
      "stateMutability": "nonpayable",
      "type": "function"
    },
    {
      "constant": false,
      "inputs": [
        {
          "internalType": "address payable",
          "name": "_withdrawalAccount",
          "type": "address"
        }
      ],
      "name": "withdrawStuckEther",
      "outputs": [],
      "payable": false,
      "stateMutability": "nonpayable",
      "type": "function"
    }
  ],
  "bytecode": "0x60806040526008805460ff191690553480156200001b57600080fd5b50604080518082018252600a81527f4375646f73546f6b656e0000000000000000000000000000000000000000000060208083019182528351808501909452600584527f4355444f530000000000000000000000000000000000000000000000000000009084015281519192916012916200009a91600391906200043b565b508151620000b09060049060208501906200043b565b506005805460ff191660ff9290921691909117905550620000e59050620000d66200011a565b6001600160e01b036200011f16565b6200011433620000fd6001600160e01b036200017116565b60ff16600a0a620f4240026200017a60201b60201c565b620004dd565b335b90565b6200013a8160066200029560201b62000e0c1790919060201c565b6040516001600160a01b038216907f22380c05984257a1cb900161c713dd71d39e74820f1aea43bd3f1bdd2096129990600090a250565b60055460ff1690565b6001600160a01b038216620001f057604080517f08c379a000000000000000000000000000000000000000000000000000000000815260206004820152601f60248201527f45524332303a206d696e7420746f20746865207a65726f206164647265737300604482015290519081900360640190fd5b6200020c816002546200033c60201b62000c101790919060201c565b6002556001600160a01b038216600090815260208181526040909120546200023f91839062000c106200033c821b17901c565b6001600160a01b0383166000818152602081815260408083209490945583518581529351929391927fddf252ad1be2c89b69c2b068fc378daa952ba7f163c4a11628f55a4df523b3ef9281900390910190a35050565b620002aa82826001600160e01b03620003b816565b156200031757604080517f08c379a000000000000000000000000000000000000000000000000000000000815260206004820152601f60248201527f526f6c65733a206163636f756e7420616c72656164792068617320726f6c6500604482015290519081900360640190fd5b6001600160a01b0316600090815260209190915260409020805460ff19166001179055565b600082820183811015620003b157604080517f08c379a000000000000000000000000000000000000000000000000000000000815260206004820152601b60248201527f536166654d6174683a206164646974696f6e206f766572666c6f770000000000604482015290519081900360640190fd5b9392505050565b60006001600160a01b0382166200041b576040517f08c379a0000000000000000000000000000000000000000000000000000000008152600401808060200182810382526022815260200180620017176022913960400191505060405180910390fd5b506001600160a01b03166000908152602091909152604090205460ff1690565b828054600181600116156101000203166002900490600052602060002090601f016020900481019282601f106200047e57805160ff1916838001178555620004ae565b82800160010185558215620004ae579182015b82811115620004ae57825182559160200191906001019062000491565b50620004bc929150620004c0565b5090565b6200011c91905b80821115620004bc5760008155600101620004c7565b61122a80620004ed6000396000f3fe608060405234801561001057600080fd5b50600436106101775760003560e01c80633e5ac28f116100d8578063a457c2d71161008c578063bef97c8711610066578063bef97c871461044f578063d6cd947314610457578063dd62ed3e1461045f57610177565b8063a457c2d7146103d1578063a9059cbb146103fd578063bb5f747b1461042957610177565b806370a08231116100bd57806370a082311461037d5780637362d9c8146103a357806395d89b41146103c957610177565b80633e5ac28f1461036d5780634c5a628c1461037557610177565b806326ccd77a1161012f578063313ce56711610114578063313ce567146102fd578063395093511461031b5780633af32abf1461034757610177565b806326ccd77a146102b1578063291d9549146102d757610177565b806310154bad1161016057806310154bad1461023957806318160ddd1461026157806323b872dd1461027b57610177565b806306fdde031461017c578063095ea7b3146101f9575b600080fd5b61018461048d565b6040805160208082528351818301528351919283929083019185019080838360005b838110156101be5781810151838201526020016101a6565b50505050905090810190601f1680156101eb5780820380516001836020036101000a031916815260200191505b509250505060405180910390f35b6102256004803603604081101561020f57600080fd5b506001600160a01b038135169060200135610523565b604080519115158252519081900360200190f35b61025f6004803603602081101561024f57600080fd5b50356001600160a01b0316610540565b005b610269610597565b60408051918252519081900360200190f35b6102256004803603606081101561029157600080fd5b506001600160a01b0381358116916020810135909116906040013561059d565b61025f600480360360208110156102c757600080fd5b50356001600160a01b0316610603565b61025f600480360360208110156102ed57600080fd5b50356001600160a01b03166106de565b61030561072d565b6040805160ff9092168252519081900360200190f35b6102256004803603604081101561033157600080fd5b506001600160a01b038135169060200135610736565b6102256004803603602081101561035d57600080fd5b50356001600160a01b031661078f565b61025f6107a8565b61025f610802565b6102696004803603602081101561039357600080fd5b50356001600160a01b0316610814565b61025f600480360360208110156103b957600080fd5b50356001600160a01b031661082f565b61018461087e565b610225600480360360408110156103e757600080fd5b506001600160a01b0381351690602001356108df565b6102256004803603604081101561041357600080fd5b506001600160a01b03813516906020013561094d565b6102256004803603602081101561043f57600080fd5b50356001600160a01b03166109b1565b6102256109c4565b61025f6109cd565b6102696004803603604081101561047557600080fd5b506001600160a01b03813581169160200135166109dd565b60038054604080516020601f60026000196101006001881615020190951694909404938401819004810282018101909252828152606093909290918301828280156105195780601f106104ee57610100808354040283529160200191610519565b820191906000526020600020905b8154815290600101906020018083116104fc57829003601f168201915b5050505050905090565b6000610537610530610a08565b8484610a0c565b50600192915050565b61055061054b610a08565b6109b1565b61058b5760405162461bcd60e51b81526004018080602001828103825260408152602001806111276040913960400191505060405180910390fd5b61059481610af8565b50565b60025490565b60006105a83361078f565b806105b5575060085460ff165b6105f05760405162461bcd60e51b81526004018080602001828103825260218152602001806111d56021913960400191505060405180910390fd5b6105fb848484610b40565b949350505050565b61060e61054b610a08565b6106495760405162461bcd60e51b81526004018080602001828103825260408152602001806111276040913960400191505060405180910390fd5b6001600160a01b0381166106a4576040805162461bcd60e51b815260206004820152601860248201527f496e76616c696420616464726573732070726f76696465640000000000000000604482015290519081900360640190fd5b6040516001600160a01b03821690303180156108fc02916000818181858888f193505050501580156106da573d6000803e3d6000fd5b5050565b6106e961054b610a08565b6107245760405162461bcd60e51b81526004018080602001828103825260408152602001806111276040913960400191505060405180910390fd5b61059481610bc8565b60055460ff1690565b6000610537610743610a08565b8461078a8560016000610754610a08565b6001600160a01b03908116825260208083019390935260409182016000908120918c16815292529020549063ffffffff610c1016565b610a0c565b60006107a260078363ffffffff610c6a16565b92915050565b6107b361054b610a08565b6107ee5760405162461bcd60e51b81526004018080602001828103825260408152602001806111276040913960400191505060405180910390fd5b6008805460ff19811660ff90911615179055565b61081261080d610a08565b610cd1565b565b6001600160a01b031660009081526020819052604090205490565b61083a61054b610a08565b6108755760405162461bcd60e51b81526004018080602001828103825260408152602001806111276040913960400191505060405180910390fd5b61059481610d19565b60048054604080516020601f60026000196101006001881615020190951694909404938401819004810282018101909252828152606093909290918301828280156105195780601f106104ee57610100808354040283529160200191610519565b60006105376108ec610a08565b8461078a856040518060600160405280602581526020016111b06025913960016000610916610a08565b6001600160a01b03908116825260208083019390935260409182016000908120918d1681529252902054919063ffffffff610d6116565b60006109583361078f565b80610965575060085460ff165b6109a05760405162461bcd60e51b81526004018080602001828103825260218152602001806111d56021913960400191505060405180910390fd5b6109aa8383610df8565b9392505050565b60006107a260068363ffffffff610c6a16565b60085460ff1681565b6108126109d8610a08565b610bc8565b6001600160a01b03918216600090815260016020908152604080832093909416825291909152205490565b3390565b6001600160a01b038316610a515760405162461bcd60e51b815260040180806020018281038252602481526020018061118c6024913960400191505060405180910390fd5b6001600160a01b038216610a965760405162461bcd60e51b81526004018080602001828103825260228152602001806110746022913960400191505060405180910390fd5b6001600160a01b03808416600081815260016020908152604080832094871680845294825291829020859055815185815291517f8c5be1e5ebec7d5bd14f71427d1e84f3dd0314c0f7b2291e5b200ac8c7c3b9259281900390910190a3505050565b610b0960078263ffffffff610e0c16565b6040516001600160a01b038216907fee1504a83b6d4a361f4c1dc78ab59bfa30d6a3b6612c403e86bb01ef2984295f90600090a250565b6000610b4d848484610e8d565b610bbe84610b59610a08565b61078a856040518060600160405280602881526020016110dd602891396001600160a01b038a16600090815260016020526040812090610b97610a08565b6001600160a01b03168152602081019190915260400160002054919063ffffffff610d6116565b5060019392505050565b610bd960078263ffffffff610fe916565b6040516001600160a01b038216907f270d9b30cf5b0793bbfd54c9d5b94aeb49462b8148399000265144a8722da6b690600090a250565b6000828201838110156109aa576040805162461bcd60e51b815260206004820152601b60248201527f536166654d6174683a206164646974696f6e206f766572666c6f770000000000604482015290519081900360640190fd5b60006001600160a01b038216610cb15760405162461bcd60e51b81526004018080602001828103825260228152602001806111056022913960400191505060405180910390fd5b506001600160a01b03166000908152602091909152604090205460ff1690565b610ce260068263ffffffff610fe916565b6040516001600160a01b038216907f0a8eb35e5ca14b3d6f28e4abf2f128dbab231a58b56e89beb5d636115001e16590600090a250565b610d2a60068263ffffffff610e0c16565b6040516001600160a01b038216907f22380c05984257a1cb900161c713dd71d39e74820f1aea43bd3f1bdd2096129990600090a250565b60008184841115610df05760405162461bcd60e51b81526004018080602001828103825283818151815260200191508051906020019080838360005b83811015610db5578181015183820152602001610d9d565b50505050905090810190601f168015610de25780820380516001836020036101000a031916815260200191505b509250505060405180910390fd5b505050900390565b6000610537610e05610a08565b8484610e8d565b610e168282610c6a565b15610e68576040805162461bcd60e51b815260206004820152601f60248201527f526f6c65733a206163636f756e7420616c72656164792068617320726f6c6500604482015290519081900360640190fd5b6001600160a01b0316600090815260209190915260409020805460ff19166001179055565b6001600160a01b038316610ed25760405162461bcd60e51b81526004018080602001828103825260258152602001806111676025913960400191505060405180910390fd5b6001600160a01b038216610f175760405162461bcd60e51b81526004018080602001828103825260238152602001806110516023913960400191505060405180910390fd5b610f5a81604051806060016040528060268152602001611096602691396001600160a01b038616600090815260208190526040902054919063ffffffff610d6116565b6001600160a01b038085166000908152602081905260408082209390935590841681522054610f8f908263ffffffff610c1016565b6001600160a01b038084166000818152602081815260409182902094909455805185815290519193928716927fddf252ad1be2c89b69c2b068fc378daa952ba7f163c4a11628f55a4df523b3ef92918290030190a3505050565b610ff38282610c6a565b61102e5760405162461bcd60e51b81526004018080602001828103825260218152602001806110bc6021913960400191505060405180910390fd5b6001600160a01b0316600090815260209190915260409020805460ff1916905556fe45524332303a207472616e7366657220746f20746865207a65726f206164647265737345524332303a20617070726f766520746f20746865207a65726f206164647265737345524332303a207472616e7366657220616d6f756e7420657863656564732062616c616e6365526f6c65733a206163636f756e7420646f6573206e6f74206861766520726f6c6545524332303a207472616e7366657220616d6f756e74206578636565647320616c6c6f77616e6365526f6c65733a206163636f756e7420697320746865207a65726f206164647265737357686974656c69737441646d696e526f6c653a2063616c6c657220646f6573206e6f742068617665207468652057686974656c69737441646d696e20726f6c6545524332303a207472616e736665722066726f6d20746865207a65726f206164647265737345524332303a20617070726f76652066726f6d20746865207a65726f206164647265737345524332303a2064656372656173656420616c6c6f77616e63652062656c6f77207a65726f43616c6c65722063616e206e6f742063757272656e746c79207472616e73666572a265627a7a72315820b69d3277c328fb08a573b689eb5fc289e6e826ceda49ec2db7d185e0b256907564736f6c634300050c0032526f6c65733a206163636f756e7420697320746865207a65726f2061646472657373",
  "source": "pragma solidity ^0.5.0;\n\nimport \"@openzeppelin/contracts/token/ERC20/ERC20.sol\";\nimport \"@openzeppelin/contracts/token/ERC20/ERC20Detailed.sol\";\nimport \"@openzeppelin/contracts/access/roles/WhitelistedRole.sol\";\n\ncontract CudosToken is ERC20, ERC20Detailed, WhitelistedRole {\n\n    bool public transfersEnabled = false;\n\n    uint256 constant internal ONE_MILLION = 1000000;\n\n    constructor () public ERC20Detailed(\"CudosToken\", \"CUDOS\", 18) {\n        _mint(msg.sender, ONE_MILLION * (10 ** uint256(decimals())));\n    }\n\n    function transfer(address recipient, uint256 amount) public returns (bool) {\n        require(isWhitelisted(msg.sender) || transfersEnabled, \"Caller can not currently transfer\");\n\n        return super.transfer(recipient, amount);\n    }\n\n    function transferFrom(address sender, address recipient, uint256 amount) public returns (bool) {\n        require(isWhitelisted(msg.sender) || transfersEnabled, \"Caller can not currently transfer\");\n\n        return super.transferFrom(sender, recipient, amount);\n    }\n\n    function toggleTransfers() external onlyWhitelistAdmin {\n        transfersEnabled = !transfersEnabled;\n    }\n\n    function withdrawStuckEther(address payable _withdrawalAccount) onlyWhitelistAdmin public {\n        require(_withdrawalAccount != address(0), \"Invalid address provided\");\n        _withdrawalAccount.transfer(address(this).balance);\n    }\n}\n\n",
  "sourcePath": "/Users/andy/workspace/cudos-token/contracts/CudosToken.sol",
  "compiler": {
    "name": "solc",
    "version": "0.5.12+commit.7709ece9.Emscripten.clang"
  },
  "schemaVersion": "3.0.16",
  "updatedAt": "2019-12-11T14:27:01.387Z",
  "devdoc": {
    "methods": {
      "allowance(address,address)": {
        "details": "See {IERC20-allowance}."
      },
      "approve(address,uint256)": {
        "details": "See {IERC20-approve}.     * Requirements:     * - `spender` cannot be the zero address."
      },
      "balanceOf(address)": {
        "details": "See {IERC20-balanceOf}."
      },
      "decimals()": {
        "details": "Returns the number of decimals used to get its user representation. For example, if `decimals` equals `2`, a balance of `505` tokens should be displayed to a user as `5,05` (`505 / 10 ** 2`).     * Tokens usually opt for a value of 18, imitating the relationship between Ether and Wei.     * NOTE: This information is only used for _display_ purposes: it in no way affects any of the arithmetic of the contract, including {IERC20-balanceOf} and {IERC20-transfer}."
      },
      "decreaseAllowance(address,uint256)": {
        "details": "Atomically decreases the allowance granted to `spender` by the caller.     * This is an alternative to {approve} that can be used as a mitigation for problems described in {IERC20-approve}.     * Emits an {Approval} event indicating the updated allowance.     * Requirements:     * - `spender` cannot be the zero address. - `spender` must have allowance for the caller of at least `subtractedValue`."
      },
      "increaseAllowance(address,uint256)": {
        "details": "Atomically increases the allowance granted to `spender` by the caller.     * This is an alternative to {approve} that can be used as a mitigation for problems described in {IERC20-approve}.     * Emits an {Approval} event indicating the updated allowance.     * Requirements:     * - `spender` cannot be the zero address."
      },
      "name()": {
        "details": "Returns the name of the token."
      },
      "symbol()": {
        "details": "Returns the symbol of the token, usually a shorter version of the name."
      },
      "totalSupply()": {
        "details": "See {IERC20-totalSupply}."
      }
    }
  },
  "userdoc": {
    "methods": {}
  }
}