{
  "contractName": "VestingContract",
  "abi": [
    {
      "inputs": [
        {
          "internalType": "contract IERC20",
          "name": "_token",
          "type": "address"
        }
      ],
      "payable": false,
      "stateMutability": "nonpayable",
      "type": "constructor"
    },
    {
      "anonymous": false,
      "inputs": [
        {
          "indexed": true,
          "internalType": "address",
          "name": "_beneficiary",
          "type": "address"
        },
        {
          "indexed": true,
          "internalType": "uint256",
          "name": "_amount",
          "type": "uint256"
        },
        {
          "indexed": true,
          "internalType": "uint256",
          "name": "_time",
          "type": "uint256"
        }
      ],
      "name": "DrawDown",
      "type": "event"
    },
    {
      "anonymous": false,
      "inputs": [
        {
          "indexed": false,
          "internalType": "address",
          "name": "account",
          "type": "address"
        }
      ],
      "name": "Paused",
      "type": "event"
    },
    {
      "anonymous": false,
      "inputs": [
        {
          "indexed": true,
          "internalType": "address",
          "name": "_beneficiary",
          "type": "address"
        },
        {
          "indexed": true,
          "internalType": "address",
          "name": "_cancelledBy",
          "type": "address"
        }
      ],
      "name": "ScheduleCancelled",
      "type": "event"
    },
    {
      "anonymous": false,
      "inputs": [
        {
          "indexed": true,
          "internalType": "address",
          "name": "_beneficiary",
          "type": "address"
        },
        {
          "indexed": true,
          "internalType": "uint256",
          "name": "_amount",
          "type": "uint256"
        },
        {
          "indexed": true,
          "internalType": "uint256",
          "name": "_start",
          "type": "uint256"
        },
        {
          "indexed": false,
          "internalType": "uint256",
          "name": "_duration",
          "type": "uint256"
        }
      ],
      "name": "ScheduleCreated",
      "type": "event"
    },
    {
      "anonymous": false,
      "inputs": [
        {
          "indexed": false,
          "internalType": "address",
          "name": "account",
          "type": "address"
        }
      ],
      "name": "Unpaused",
      "type": "event"
    },
    {
      "anonymous": false,
      "inputs": [
        {
          "indexed": true,
          "internalType": "address",
          "name": "account",
          "type": "address"
        }
      ],
      "name": "WhitelistAdminAdded",
      "type": "event"
    },
    {
      "anonymous": false,
      "inputs": [
        {
          "indexed": true,
          "internalType": "address",
          "name": "account",
          "type": "address"
        }
      ],
      "name": "WhitelistAdminRemoved",
      "type": "event"
    },
    {
      "anonymous": false,
      "inputs": [
        {
          "indexed": true,
          "internalType": "address",
          "name": "account",
          "type": "address"
        }
      ],
      "name": "WhitelistedAdded",
      "type": "event"
    },
    {
      "anonymous": false,
      "inputs": [
        {
          "indexed": true,
          "internalType": "address",
          "name": "account",
          "type": "address"
        }
      ],
      "name": "WhitelistedRemoved",
      "type": "event"
    },
    {
      "constant": true,
      "inputs": [],
      "name": "PERIOD_ONE_DAY_IN_SECONDS",
      "outputs": [
        {
          "internalType": "uint256",
          "name": "",
          "type": "uint256"
        }
      ],
      "payable": false,
      "stateMutability": "view",
      "type": "function"
    },
    {
      "constant": false,
      "inputs": [
        {
          "internalType": "address",
          "name": "account",
          "type": "address"
        }
      ],
      "name": "addWhitelistAdmin",
      "outputs": [],
      "payable": false,
      "stateMutability": "nonpayable",
      "type": "function"
    },
    {
      "constant": false,
      "inputs": [
        {
          "internalType": "address",
          "name": "account",
          "type": "address"
        }
      ],
      "name": "addWhitelisted",
      "outputs": [],
      "payable": false,
      "stateMutability": "nonpayable",
      "type": "function"
    },
    {
      "constant": true,
      "inputs": [
        {
          "internalType": "address",
          "name": "account",
          "type": "address"
        }
      ],
      "name": "isWhitelistAdmin",
      "outputs": [
        {
          "internalType": "bool",
          "name": "",
          "type": "bool"
        }
      ],
      "payable": false,
      "stateMutability": "view",
      "type": "function"
    },
    {
      "constant": true,
      "inputs": [
        {
          "internalType": "address",
          "name": "account",
          "type": "address"
        }
      ],
      "name": "isWhitelisted",
      "outputs": [
        {
          "internalType": "bool",
          "name": "",
          "type": "bool"
        }
      ],
      "payable": false,
      "stateMutability": "view",
      "type": "function"
    },
    {
      "constant": true,
      "inputs": [],
      "name": "paused",
      "outputs": [
        {
          "internalType": "bool",
          "name": "",
          "type": "bool"
        }
      ],
      "payable": false,
      "stateMutability": "view",
      "type": "function"
    },
    {
      "constant": false,
      "inputs": [
        {
          "internalType": "address",
          "name": "account",
          "type": "address"
        }
      ],
      "name": "removeWhitelisted",
      "outputs": [],
      "payable": false,
      "stateMutability": "nonpayable",
      "type": "function"
    },
    {
      "constant": false,
      "inputs": [],
      "name": "renounceWhitelistAdmin",
      "outputs": [],
      "payable": false,
      "stateMutability": "nonpayable",
      "type": "function"
    },
    {
      "constant": false,
      "inputs": [],
      "name": "renounceWhitelisted",
      "outputs": [],
      "payable": false,
      "stateMutability": "nonpayable",
      "type": "function"
    },
    {
      "constant": true,
      "inputs": [],
      "name": "token",
      "outputs": [
        {
          "internalType": "contract IERC20",
          "name": "",
          "type": "address"
        }
      ],
      "payable": false,
      "stateMutability": "view",
      "type": "function"
    },
    {
      "constant": true,
      "inputs": [
        {
          "internalType": "address",
          "name": "",
          "type": "address"
        }
      ],
      "name": "vestingSchedule",
      "outputs": [
        {
          "internalType": "uint256",
          "name": "start",
          "type": "uint256"
        },
        {
          "internalType": "uint256",
          "name": "end",
          "type": "uint256"
        },
        {
          "internalType": "uint256",
          "name": "amount",
          "type": "uint256"
        },
        {
          "internalType": "uint256",
          "name": "totalDrawn",
          "type": "uint256"
        },
        {
          "internalType": "uint256",
          "name": "lastDrawnAt",
          "type": "uint256"
        },
        {
          "internalType": "uint256",
          "name": "drawDownRate",
          "type": "uint256"
        }
      ],
      "payable": false,
      "stateMutability": "view",
      "type": "function"
    },
    {
      "constant": false,
      "inputs": [
        {
          "internalType": "address",
          "name": "_beneficiary",
          "type": "address"
        },
        {
          "internalType": "uint256",
          "name": "_amount",
          "type": "uint256"
        },
        {
          "internalType": "uint256",
          "name": "_start",
          "type": "uint256"
        },
        {
          "internalType": "uint256",
          "name": "_durationInDays",
          "type": "uint256"
        }
      ],
      "name": "createVestingSchedule",
      "outputs": [
        {
          "internalType": "bool",
          "name": "",
          "type": "bool"
        }
      ],
      "payable": false,
      "stateMutability": "nonpayable",
      "type": "function"
    },
    {
      "constant": false,
      "inputs": [
        {
          "internalType": "address",
          "name": "_beneficiary",
          "type": "address"
        }
      ],
      "name": "cancelVestingSchedule",
      "outputs": [
        {
          "internalType": "bool",
          "name": "",
          "type": "bool"
        }
      ],
      "payable": false,
      "stateMutability": "nonpayable",
      "type": "function"
    },
    {
      "constant": false,
      "inputs": [],
      "name": "drawDown",
      "outputs": [
        {
          "internalType": "bool",
          "name": "",
          "type": "bool"
        }
      ],
      "payable": false,
      "stateMutability": "nonpayable",
      "type": "function"
    },
    {
      "constant": false,
      "inputs": [],
      "name": "pause",
      "outputs": [],
      "payable": false,
      "stateMutability": "nonpayable",
      "type": "function"
    },
    {
      "constant": false,
      "inputs": [],
      "name": "unpause",
      "outputs": [],
      "payable": false,
      "stateMutability": "nonpayable",
      "type": "function"
    },
    {
      "constant": true,
      "inputs": [],
      "name": "tokenBalance",
      "outputs": [
        {
          "internalType": "uint256",
          "name": "",
          "type": "uint256"
        }
      ],
      "payable": false,
      "stateMutability": "view",
      "type": "function"
    },
    {
      "constant": true,
      "inputs": [
        {
          "internalType": "address",
          "name": "_beneficiary",
          "type": "address"
        }
      ],
      "name": "vestingScheduleForBeneficiary",
      "outputs": [
        {
          "internalType": "uint256",
          "name": "_start",
          "type": "uint256"
        },
        {
          "internalType": "uint256",
          "name": "_end",
          "type": "uint256"
        },
        {
          "internalType": "uint256",
          "name": "_amount",
          "type": "uint256"
        },
        {
          "internalType": "uint256",
          "name": "_totalDrawn",
          "type": "uint256"
        },
        {
          "internalType": "uint256",
          "name": "_lastDrawnAt",
          "type": "uint256"
        },
        {
          "internalType": "uint256",
          "name": "_drawDownRate",
          "type": "uint256"
        },
        {
          "internalType": "uint256",
          "name": "_remainingBalance",
          "type": "uint256"
        }
      ],
      "payable": false,
      "stateMutability": "view",
      "type": "function"
    },
    {
      "constant": true,
      "inputs": [
        {
          "internalType": "address",
          "name": "_beneficiary",
          "type": "address"
        }
      ],
      "name": "availableDrawDownAmount",
      "outputs": [
        {
          "internalType": "uint256",
          "name": "_amount",
          "type": "uint256"
        },
        {
          "internalType": "uint256",
          "name": "_timeLastDrawn",
          "type": "uint256"
        },
        {
          "internalType": "uint256",
          "name": "_drawDownRate",
          "type": "uint256"
        }
      ],
      "payable": false,
      "stateMutability": "view",
      "type": "function"
    },
    {
      "constant": true,
      "inputs": [
        {
          "internalType": "address",
          "name": "_beneficiary",
          "type": "address"
        }
      ],
      "name": "scheduleStart",
      "outputs": [
        {
          "internalType": "uint256",
          "name": "",
          "type": "uint256"
        }
      ],
      "payable": false,
      "stateMutability": "view",
      "type": "function"
    },
    {
      "constant": true,
      "inputs": [
        {
          "internalType": "address",
          "name": "_beneficiary",
          "type": "address"
        }
      ],
      "name": "scheduleEnd",
      "outputs": [
        {
          "internalType": "uint256",
          "name": "",
          "type": "uint256"
        }
      ],
      "payable": false,
      "stateMutability": "view",
      "type": "function"
    },
    {
      "constant": true,
      "inputs": [
        {
          "internalType": "address",
          "name": "_beneficiary",
          "type": "address"
        }
      ],
      "name": "scheduleTotalTokens",
      "outputs": [
        {
          "internalType": "uint256",
          "name": "",
          "type": "uint256"
        }
      ],
      "payable": false,
      "stateMutability": "view",
      "type": "function"
    },
    {
      "constant": true,
      "inputs": [
        {
          "internalType": "address",
          "name": "_beneficiary",
          "type": "address"
        }
      ],
      "name": "totalDrawn",
      "outputs": [
        {
          "internalType": "uint256",
          "name": "",
          "type": "uint256"
        }
      ],
      "payable": false,
      "stateMutability": "view",
      "type": "function"
    },
    {
      "constant": true,
      "inputs": [
        {
          "internalType": "address",
          "name": "_beneficiary",
          "type": "address"
        }
      ],
      "name": "lastDrawnAt",
      "outputs": [
        {
          "internalType": "uint256",
          "name": "",
          "type": "uint256"
        }
      ],
      "payable": false,
      "stateMutability": "view",
      "type": "function"
    },
    {
      "constant": true,
      "inputs": [
        {
          "internalType": "address",
          "name": "_beneficiary",
          "type": "address"
        }
      ],
      "name": "drawDownRate",
      "outputs": [
        {
          "internalType": "uint256",
          "name": "",
          "type": "uint256"
        }
      ],
      "payable": false,
      "stateMutability": "view",
      "type": "function"
    },
    {
      "constant": true,
      "inputs": [
        {
          "internalType": "address",
          "name": "_beneficiary",
          "type": "address"
        }
      ],
      "name": "remainingBalance",
      "outputs": [
        {
          "internalType": "uint256",
          "name": "",
          "type": "uint256"
        }
      ],
      "payable": false,
      "stateMutability": "view",
      "type": "function"
    }
  ],
  "bytecode": "0x60806040523480156200001157600080fd5b5060405162001e1f38038062001e1f833981810160405260208110156200003757600080fd5b50516200005f620000506001600160e01b03620000ac16565b6001600160e01b03620000b016565b6001600160a01b0381166200007357600080fd5b600380546001600160a01b0319166001600160a01b038316179055620000a53362000102602090811b6200056017901c565b5062000335565b3390565b620000cb8160006200019660201b620016c21790919060201c565b6040516001600160a01b038216907f22380c05984257a1cb900161c713dd71d39e74820f1aea43bd3f1bdd2096129990600090a250565b62000128620001196001600160e01b03620000ac16565b6001600160e01b036200023d16565b6200017f576040517f08c379a000000000000000000000000000000000000000000000000000000000815260040180806020018281038252604081526020018062001ddf6040913960400191505060405180910390fd5b62000193816001600160e01b036200026016565b50565b620001ab82826001600160e01b03620002b216565b156200021857604080517f08c379a000000000000000000000000000000000000000000000000000000000815260206004820152601f60248201527f526f6c65733a206163636f756e7420616c72656164792068617320726f6c6500604482015290519081900360640190fd5b6001600160a01b0316600090815260209190915260409020805460ff19166001179055565b60006200025a826000620002b260201b620014901790919060201c565b92915050565b6200027b8160016200019660201b620016c21790919060201c565b6040516001600160a01b038216907fee1504a83b6d4a361f4c1dc78ab59bfa30d6a3b6612c403e86bb01ef2984295f90600090a250565b60006001600160a01b03821662000315576040517f08c379a000000000000000000000000000000000000000000000000000000000815260040180806020018281038252602281526020018062001dbd6022913960400191505060405180910390fd5b506001600160a01b03166000908152602091909152604090205460ff1690565b611a7880620003456000396000f3fe608060405234801561001057600080fd5b50600436106101ae5760003560e01c8063845a770f116100ee578063c760e68011610097578063da0ebf8e11610071578063da0ebf8e146104b5578063f1b42195146104db578063fc0c546a146104e3578063ffff6b0414610507576101ae565b8063c760e68014610461578063d3a637f214610487578063d6cd9473146104ad576101ae565b8063a9d41cf7116100c8578063a9d41cf7146103b7578063bb5f747b146103dd578063c570b83514610403576101ae565b8063845a770f146103635780638c31d456146103895780639e1a4d19146103af576101ae565b8063451c469a1161015b578063634107f811610135578063634107f81461030757806365281d151461030f5780637362d9c8146103355780638456cb591461035b576101ae565b8063451c469a146102bf5780634c5a628c146102f75780635c975abb146102ff576101ae565b80633af32abf1161018c5780633af32abf146102455780633f4ba83a1461027f5780633f4e8e8014610287576101ae565b806310154bad146101b357806315298b5e146101db578063291d95491461021f575b600080fd5b6101d9600480360360208110156101c957600080fd5b50356001600160a01b0316610560565b005b610201600480360360208110156101f157600080fd5b50356001600160a01b03166105b7565b60408051938452602084019290925282820152519081900360600190f35b6101d96004803603602081101561023557600080fd5b50356001600160a01b03166105d3565b61026b6004803603602081101561025b57600080fd5b50356001600160a01b0316610622565b604080519115158252519081900360200190f35b6101d961063b565b61026b6004803603608081101561029d57600080fd5b506001600160a01b0381351690602081013590604081013590606001356106c8565b6102e5600480360360208110156102d557600080fd5b50356001600160a01b0316610a5c565b60408051918252519081900360200190f35b6101d9610a7b565b61026b610a8d565b61026b610a9d565b6102e56004803603602081101561032557600080fd5b50356001600160a01b0316610cd6565b6101d96004803603602081101561034b57600080fd5b50356001600160a01b0316610d57565b6101d9610da6565b6102e56004803603602081101561037957600080fd5b50356001600160a01b0316610e34565b6102e56004803603602081101561039f57600080fd5b50356001600160a01b0316610e4f565b6102e5610e6d565b61026b600480360360208110156103cd57600080fd5b50356001600160a01b0316610f02565b61026b600480360360208110156103f357600080fd5b50356001600160a01b0316611118565b6104296004803603602081101561041957600080fd5b50356001600160a01b031661112a565b604080519788526020880196909652868601949094526060860192909252608085015260a084015260c0830152519081900360e00190f35b6102e56004803603602081101561047757600080fd5b50356001600160a01b03166111ce565b6102e56004803603602081101561049d57600080fd5b50356001600160a01b03166111ec565b6101d961120a565b6102e5600480360360208110156104cb57600080fd5b50356001600160a01b031661121a565b6102e5611238565b6104eb61123f565b604080516001600160a01b039092168252519081900360200190f35b61052d6004803603602081101561051d57600080fd5b50356001600160a01b031661124e565b604080519687526020870195909552858501939093526060850191909152608084015260a0830152519081900360c00190f35b61057061056b611285565b611118565b6105ab5760405162461bcd60e51b81526004018080602001828103825260408152602001806119ca6040913960400191505060405180910390fd5b6105b481611289565b50565b60008060006105c5846112d1565b9250925092505b9193909250565b6105de61056b611285565b6106195760405162461bcd60e51b81526004018080602001828103825260408152602001806119ca6040913960400191505060405180910390fd5b6105b481611448565b600061063560018363ffffffff61149016565b92915050565b61064b610646611285565b610622565b6106865760405162461bcd60e51b815260040180806020018281038252603a815260200180611a0a603a913960400191505060405180910390fd5b6003805460ff60a01b191690556040805133815290517f5db9ee0a495bf2e6ff9c91a7834c1ba4fdd244a5e8aa4e537bd38aeae4b073aa9181900360200190a1565b60006106d5610646611285565b6107105760405162461bcd60e51b815260040180806020018281038252603a815260200180611a0a603a913960400191505060405180910390fd5b6001600160a01b03851661076b576040805162461bcd60e51b815260206004820152601b60248201527f62656e65666963696172792063616e6e6f7420626520656d7074790000000000604482015290519081900360640190fd5b600084116107c0576040805162461bcd60e51b815260206004820152601660248201527f616d6f756e742063616e6e6f7420626520656d70747900000000000000000000604482015290519081900360640190fd5b60008211610815576040805162461bcd60e51b815260206004820152601860248201527f6475726174696f6e2063616e6e6f7420626520656d7074790000000000000000604482015290519081900360640190fd5b6001600160a01b0385166000908152600260208190526040909120015415610884576040805162461bcd60e51b815260206004820152601a60248201527f5363686564756c6520616c726561647920696e20666c69676874000000000000604482015290519081900360640190fd5b600354604080517f23b872dd0000000000000000000000000000000000000000000000000000000081523360048201523060248201526044810187905290516001600160a01b03909216916323b872dd916064808201926020929091908290030181600087803b1580156108f757600080fd5b505af115801561090b573d6000803e3d6000fd5b505050506040513d602081101561092157600080fd5b505161095e5760405162461bcd60e51b815260040180806020018281038252602d8152602001806118dd602d913960400191505060405180910390fd5b6000610973836201518063ffffffff6114f716565b90506040518060c00160405280858152602001610999838761155090919063ffffffff16565b81526020810187905260006040820181905260608201526080016109c3878463ffffffff6115aa16565b90526001600160a01b038716600081815260026020818152604092839020855181558582015160018201558584015192810192909255606085015160038301556080850151600483015560a0909401516005909101558051868152905187938993927f5ab0cb75fe24f04dbfe14b847f8579bc91baa153ee5b2758fcfa59f33675b162929081900390910190a450600195945050505050565b6001600160a01b03166000908152600260208190526040909120015490565b610a8b610a86611285565b6115ec565b565b600354600160a01b900460ff1681565b600354600090600160a01b900460ff1615610ae95760405162461bcd60e51b815260040180806020018281038252603481526020018061190a6034913960400191505060405180910390fd5b33600090815260026020819052604090912090810154610b3a5760405162461bcd60e51b815260040180806020018281038252602881526020018061193e6028913960400191505060405180910390fd5b6000610b45336112d1565b5050905060008111610b9e576040805162461bcd60e51b815260206004820152601d60248201527f4e6f20616c6c6f77616e6365206c65667420746f207769746864726177000000604482015290519081900360640190fd5b610ba6611634565b60048301556003820154610bc0908263ffffffff61155016565b600380840191909155546040805163a9059cbb60e01b81523360048201526024810184905290516001600160a01b039092169163a9059cbb916044808201926020929091908290030181600087803b158015610c1b57600080fd5b505af1158015610c2f573d6000803e3d6000fd5b505050506040513d6020811015610c4557600080fd5b5051610c98576040805162461bcd60e51b815260206004820152601960248201527f556e61626c6520746f207472616e7366657220746f6b656e7300000000000000604482015290519081900360640190fd5b610ca0611634565b604051829033907fe201e6531c39b0640b808074009b8aee94328121338eb569f55de6ccb3c317ac90600090a460019250505090565b6000610ce06118a6565b506001600160a01b038216600090815260026020818152604092839020835160c08101855281548152600182015492810192909252918201549281018390526003820154606082018190526004830154608083015260059092015460a082015291610d509163ffffffff61163816565b9392505050565b610d6261056b611285565b610d9d5760405162461bcd60e51b81526004018080602001828103825260408152602001806119ca6040913960400191505060405180910390fd5b6105b48161167a565b610db1610646611285565b610dec5760405162461bcd60e51b815260040180806020018281038252603a815260200180611a0a603a913960400191505060405180910390fd5b6003805460ff60a01b1916600160a01b1790556040805133815290517f62e78cea01bee320cd4e420270b5ea74000d11b0c9f74754ebdbfc544b05a2589181900360200190a1565b6001600160a01b031660009081526002602052604090205490565b6001600160a01b031660009081526002602052604090206005015490565b600354604080517f70a0823100000000000000000000000000000000000000000000000000000000815230600482015290516000926001600160a01b0316916370a08231916024808301926020929190829003018186803b158015610ed157600080fd5b505afa158015610ee5573d6000803e3d6000fd5b505050506040513d6020811015610efb57600080fd5b5051905090565b6000610f0f610646611285565b610f4a5760405162461bcd60e51b815260040180806020018281038252603a815260200180611a0a603a913960400191505060405180910390fd5b610f526118a6565b506001600160a01b038216600090815260026020818152604092839020835160c0810185528154815260018201549281019290925291820154928101839052600382015460608201526004820154608082015260059091015460a082015290611002576040805162461bcd60e51b815260206004820152601e60248201527f5468657265206973206e6f207363686564756c6520696e20666c696768740000604482015290519081900360640190fd5b600061101f8260600151836040015161163890919063ffffffff16565b6001600160a01b0380861660009081526002602081815260408084208481556001810185905592830184905560038084018590556004808501869055600590940185905554815163a9059cbb60e01b815233948101949094526024840187905290519596509093169363a9059cbb9360448084019491938390030190829087803b1580156110ac57600080fd5b505af11580156110c0573d6000803e3d6000fd5b505050506040513d60208110156110d657600080fd5b505060405133906001600160a01b038616907f840c9405a28dcc267e21eeaa1238f7d7d8180ab67c410f7928c95b6eb7785c3090600090a35060019392505050565b6000610635818363ffffffff61149016565b600080600080600080600061113d6118a6565b506001600160a01b038816600090815260026020818152604092839020835160c081018552815480825260018301549382018490529382015494810185905260038201546060820181905260048301546080830181905260059093015460a0830181905291959290916111b6848463ffffffff61163816565b959f949e50929c50909a509850965090945092505050565b6001600160a01b031660009081526002602052604090206001015490565b6001600160a01b031660009081526002602052604090206003015490565b610a8b611215611285565b611448565b6001600160a01b031660009081526002602052604090206004015490565b6201518081565b6003546001600160a01b031681565b6002602081905260009182526040909120805460018201549282015460038301546004840154600590940154929493919290919086565b3390565b61129a60018263ffffffff6116c216565b6040516001600160a01b038216907fee1504a83b6d4a361f4c1dc78ab59bfa30d6a3b6612c403e86bb01ef2984295f90600090a250565b60008060006112de6118a6565b506001600160a01b038416600090815260026020818152604092839020835160c08101855281548152600182015492810192909252918201549281019290925260038101546060830152600481015460808301526005015460a0820152611343611634565b81511115611398576040805162461bcd60e51b815260206004820152601460248201527f5363686564756c65206e6f742073746172746564000000000000000000000000604482015290519081900360640190fd5b80602001516113a5611634565b11156113df5760006113c88260600151836040015161163890919063ffffffff16565b608090920151919450909250600091506105cc9050565b600081608001516000146113f75781608001516113fa565b81515b905060006114168261140a611634565b9063ffffffff61163816565b905060006114318460a00151836114f790919063ffffffff16565b60a094909401519398929750929550909350505050565b61145960018263ffffffff61174316565b6040516001600160a01b038216907f270d9b30cf5b0793bbfd54c9d5b94aeb49462b8148399000265144a8722da6b690600090a250565b60006001600160a01b0382166114d75760405162461bcd60e51b81526004018080602001828103825260228152602001806119a86022913960400191505060405180910390fd5b506001600160a01b03166000908152602091909152604090205460ff1690565b60008261150657506000610635565b8282028284828161151357fe5b0414610d505760405162461bcd60e51b81526004018080602001828103825260218152602001806119876021913960400191505060405180910390fd5b600082820183811015610d50576040805162461bcd60e51b815260206004820152601b60248201527f536166654d6174683a206164646974696f6e206f766572666c6f770000000000604482015290519081900360640190fd5b6000610d5083836040518060400160405280601a81526020017f536166654d6174683a206469766973696f6e206279207a65726f0000000000008152506117aa565b6115fd60008263ffffffff61174316565b6040516001600160a01b038216907f0a8eb35e5ca14b3d6f28e4abf2f128dbab231a58b56e89beb5d636115001e16590600090a250565b4290565b6000610d5083836040518060400160405280601e81526020017f536166654d6174683a207375627472616374696f6e206f766572666c6f77000081525061184c565b61168b60008263ffffffff6116c216565b6040516001600160a01b038216907f22380c05984257a1cb900161c713dd71d39e74820f1aea43bd3f1bdd2096129990600090a250565b6116cc8282611490565b1561171e576040805162461bcd60e51b815260206004820152601f60248201527f526f6c65733a206163636f756e7420616c72656164792068617320726f6c6500604482015290519081900360640190fd5b6001600160a01b0316600090815260209190915260409020805460ff19166001179055565b61174d8282611490565b6117885760405162461bcd60e51b81526004018080602001828103825260218152602001806119666021913960400191505060405180910390fd5b6001600160a01b0316600090815260209190915260409020805460ff19169055565b600081836118365760405162461bcd60e51b81526004018080602001828103825283818151815260200191508051906020019080838360005b838110156117fb5781810151838201526020016117e3565b50505050905090810190601f1680156118285780820380516001836020036101000a031916815260200191505b509250505060405180910390fd5b50600083858161184257fe5b0495945050505050565b6000818484111561189e5760405162461bcd60e51b81526020600482018181528351602484015283519092839260449091019190850190808383600083156117fb5781810151838201526020016117e3565b505050900390565b6040518060c00160405280600081526020016000815260200160008152602001600081526020016000815260200160008152509056fe556e61626c6520746f207472616e7366657220746f6b656e7320746f2076657374696e6720636f6e74726163744d6574686f642063616e6e6f7420626520696e766f6b656420617320636f6e747261637420686173206265656e207061757365645468657265206973206e6f207363686564756c652063757272656e746c7920696e20666c69676874526f6c65733a206163636f756e7420646f6573206e6f74206861766520726f6c65536166654d6174683a206d756c7469706c69636174696f6e206f766572666c6f77526f6c65733a206163636f756e7420697320746865207a65726f206164647265737357686974656c69737441646d696e526f6c653a2063616c6c657220646f6573206e6f742068617665207468652057686974656c69737441646d696e20726f6c6557686974656c6973746564526f6c653a2063616c6c657220646f6573206e6f742068617665207468652057686974656c697374656420726f6c65a265627a7a72315820288d63d2fee46b0f84e630be5a249daf3d458b2e5c319c313ad3dd7feeae09d864736f6c634300050c0032526f6c65733a206163636f756e7420697320746865207a65726f206164647265737357686974656c69737441646d696e526f6c653a2063616c6c657220646f6573206e6f742068617665207468652057686974656c69737441646d696e20726f6c65",
  "source": "pragma solidity ^0.5.12;\n\nimport \"@openzeppelin/contracts/access/roles/WhitelistedRole.sol\";\nimport \"@openzeppelin/contracts/math/SafeMath.sol\";\nimport \"@openzeppelin/contracts/token/ERC20/IERC20.sol\";\n\ncontract VestingContract is WhitelistedRole {\n    using SafeMath for uint256;\n\n    // TODO re-entrency() attack vectors\n    event Paused(address account);\n    event Unpaused(address account);\n\n    event ScheduleCreated(\n        address indexed _beneficiary,\n        uint256 indexed _amount,\n        uint256 indexed _start,\n        uint256 _duration\n    );\n\n    event ScheduleCancelled(\n        address indexed _beneficiary,\n        address indexed _cancelledBy\n    );\n\n    event DrawDown(\n        address indexed _beneficiary,\n        uint256 indexed _amount,\n        uint256 indexed _time\n    );\n\n    struct Schedule {\n        uint256 start;\n        uint256 end;\n        uint256 amount;\n        uint256 totalDrawn;\n        uint256 lastDrawnAt;\n        uint256 drawDownRate;\n    }\n\n    // Vested address to its schedule\n    mapping(address => Schedule) public vestingSchedule;\n\n    // The CUDO token contract\n    IERC20 public token;\n\n    // All durations are based in number days\n    uint256 public constant PERIOD_ONE_DAY_IN_SECONDS = 1 days;\n\n    bool public paused;\n\n    ///////////////\n    // Modifiers //\n    ///////////////\n    modifier whenNotPaused() {\n        require(!paused, \"Method cannot be invoked as contract has been paused\");\n        _;\n    }\n\n    constructor(IERC20 _token) public {\n        require(address(_token) != address(0));\n        token = _token;\n        super.addWhitelisted(msg.sender);\n    }\n\n    function createVestingSchedule(address _beneficiary, uint256 _amount, uint256 _start, uint256 _durationInDays) onlyWhitelisted external returns (bool) {\n        require(_beneficiary != address(0), \"beneficiary cannot be empty\");\n        require(_amount > 0, \"amount cannot be empty\");\n        require(_durationInDays > 0, \"duration cannot be empty\");\n\n        // Ensure one per address\n        require(vestingSchedule[_beneficiary].amount == 0, \"Schedule already in flight\");\n\n        // Bring over the tokens\n        require(token.transferFrom(msg.sender, address(this), _amount), \"Unable to transfer tokens to vesting contract\");\n\n        // Create schedule\n        uint256 _durationInSecs = _durationInDays.mul(PERIOD_ONE_DAY_IN_SECONDS);\n        vestingSchedule[_beneficiary] = Schedule({\n            start : _start,\n            end : _start.add(_durationInSecs),\n            amount : _amount,\n            totalDrawn : 0, // no tokens drawn yet\n            lastDrawnAt : 0, // never invoked\n            drawDownRate : _amount.div(_durationInSecs)\n            });\n\n        emit ScheduleCreated(_beneficiary, _amount, _start, _durationInDays);\n\n        return true;\n    }\n\n    function cancelVestingSchedule(address _beneficiary) onlyWhitelisted external returns (bool) {\n        Schedule memory schedule = vestingSchedule[_beneficiary];\n        require(schedule.amount > 0, \"There is no schedule in flight\");\n\n        uint256 remainingBalance = schedule.amount.sub(schedule.totalDrawn);\n\n        delete vestingSchedule[_beneficiary];\n\n        token.transfer(msg.sender, remainingBalance);\n\n        emit ScheduleCancelled(_beneficiary, msg.sender);\n\n        return true;\n    }\n\n    function drawDown() whenNotPaused external returns (bool) {\n        Schedule storage schedule = vestingSchedule[msg.sender];\n        require(schedule.amount > 0, \"There is no schedule currently in flight\");\n\n        (uint256 amount,,) = _availableDrawDownAmount(msg.sender);\n        require(amount > 0, \"No allowance left to withdraw\");\n\n        // Update last drawn\n        schedule.lastDrawnAt = _getNow();\n\n        // Add up total amount drawn\n        schedule.totalDrawn = schedule.totalDrawn.add(amount);\n\n        // Issue tokens to caller\n        require(token.transfer(msg.sender, amount), \"Unable to transfer tokens\");\n\n        emit DrawDown(msg.sender, amount, _getNow());\n\n        return true;\n    }\n\n    function pause() external onlyWhitelisted {\n        paused = true;\n        emit Paused(msg.sender);\n    }\n\n    function unpause() external onlyWhitelisted {\n        paused = false;\n        emit Unpaused(msg.sender);\n    }\n\n    ///////////////\n    // Accessors //\n    ///////////////\n\n    function tokenBalance() public view returns (uint256) {\n        return token.balanceOf(address(this));\n    }\n\n    function vestingScheduleForBeneficiary(address _beneficiary)\n    external view\n    returns (uint256 _start, uint256 _end, uint256 _amount, uint256 _totalDrawn, uint256 _lastDrawnAt, uint256 _drawDownRate, uint256 _remainingBalance) {\n        Schedule memory schedule = vestingSchedule[_beneficiary];\n        return (\n        schedule.start,\n        schedule.end,\n        schedule.amount,\n        schedule.totalDrawn,\n        schedule.lastDrawnAt,\n        schedule.drawDownRate,\n        schedule.amount.sub(schedule.totalDrawn)\n        );\n    }\n\n    function availableDrawDownAmount(address _beneficiary) external view returns (uint256 _amount, uint256 _timeLastDrawn, uint256 _drawDownRate) {\n        return _availableDrawDownAmount(_beneficiary);\n    }\n\n    function scheduleStart(address _beneficiary) external view returns (uint256) {\n        return vestingSchedule[_beneficiary].start;\n    }\n\n    function scheduleEnd(address _beneficiary) external view returns (uint256) {\n        return vestingSchedule[_beneficiary].end;\n    }\n\n    function scheduleTotalTokens(address _beneficiary) external view returns (uint256) {\n        return vestingSchedule[_beneficiary].amount;\n    }\n\n    function totalDrawn(address _beneficiary) external view returns (uint256) {\n        return vestingSchedule[_beneficiary].totalDrawn;\n    }\n\n    function lastDrawnAt(address _beneficiary) external view returns (uint256) {\n        return vestingSchedule[_beneficiary].lastDrawnAt;\n    }\n\n    function drawDownRate(address _beneficiary) external view returns (uint256) {\n        return vestingSchedule[_beneficiary].drawDownRate;\n    }\n\n    function remainingBalance(address _beneficiary) external view returns (uint256) {\n        Schedule memory schedule = vestingSchedule[_beneficiary];\n        return schedule.amount.sub(schedule.totalDrawn);\n    }\n\n    //////////////\n    // Internal //\n    //////////////\n\n    function _getNow() internal view returns (uint256) {\n        return block.timestamp;\n    }\n\n    function _availableDrawDownAmount(address _beneficiary) internal view returns (uint256 _amount, uint256 _timeLastDrawn, uint256 _drawDownRate) {\n        Schedule memory schedule = vestingSchedule[_beneficiary];\n        require(schedule.start <= _getNow(), \"Schedule not started\");\n\n        if (_getNow() > schedule.end) {\n            uint256 amount = schedule.amount.sub(schedule.totalDrawn);\n            return (amount, schedule.lastDrawnAt, 0);\n        }\n\n        ////////////////////////\n        // Schedule is active //\n        ////////////////////////\n\n        // Work out when the last invocation was\n        uint256 timeLastDrawn = schedule.lastDrawnAt == 0 ? schedule.start : schedule.lastDrawnAt;\n\n        // Find out how much time has past since last invocation\n        uint256 timePassedSinceLastInvocation = _getNow().sub(timeLastDrawn);\n\n        // Work out how many due tokens - time passed * rate per seconds\n        uint256 amount = timePassedSinceLastInvocation.mul(schedule.drawDownRate);\n\n        return (amount, timeLastDrawn, schedule.drawDownRate);\n    }\n}\n",
  "sourcePath": "/Users/andy/workspace/cudos-token/contracts/vesting/VestingContract.sol",
  "compiler": {
    "name": "solc",
    "version": "0.5.12+commit.7709ece9.Emscripten.clang"
  },
  "schemaVersion": "3.0.16",
  "updatedAt": "2019-12-11T14:27:01.397Z",
  "devdoc": {
    "methods": {}
  },
  "userdoc": {
    "methods": {
      "tokenBalance()": {
        "notice": "////////////"
      }
    }
  }
}