{
  "contractName": "VestingContract",
  "abi": [
    {
      "inputs": [
        {
          "internalType": "contract IERC20",
          "name": "_token",
          "type": "address"
        }
      ],
      "payable": false,
      "stateMutability": "nonpayable",
      "type": "constructor"
    },
    {
      "anonymous": false,
      "inputs": [
        {
          "indexed": true,
          "internalType": "address",
          "name": "_beneficiary",
          "type": "address"
        },
        {
          "indexed": true,
          "internalType": "uint256",
          "name": "_amount",
          "type": "uint256"
        },
        {
          "indexed": true,
          "internalType": "uint256",
          "name": "_time",
          "type": "uint256"
        }
      ],
      "name": "DrawDown",
      "type": "event"
    },
    {
      "anonymous": false,
      "inputs": [
        {
          "indexed": false,
          "internalType": "address",
          "name": "account",
          "type": "address"
        }
      ],
      "name": "Paused",
      "type": "event"
    },
    {
      "anonymous": false,
      "inputs": [
        {
          "indexed": true,
          "internalType": "address",
          "name": "_beneficiary",
          "type": "address"
        },
        {
          "indexed": true,
          "internalType": "uint256",
          "name": "_amount",
          "type": "uint256"
        },
        {
          "indexed": true,
          "internalType": "uint256",
          "name": "_start",
          "type": "uint256"
        },
        {
          "indexed": false,
          "internalType": "uint256",
          "name": "_duration",
          "type": "uint256"
        }
      ],
      "name": "ScheduleCreated",
      "type": "event"
    },
    {
      "anonymous": false,
      "inputs": [
        {
          "indexed": false,
          "internalType": "address",
          "name": "account",
          "type": "address"
        }
      ],
      "name": "Unpaused",
      "type": "event"
    },
    {
      "anonymous": false,
      "inputs": [
        {
          "indexed": true,
          "internalType": "address",
          "name": "account",
          "type": "address"
        }
      ],
      "name": "WhitelistAdminAdded",
      "type": "event"
    },
    {
      "anonymous": false,
      "inputs": [
        {
          "indexed": true,
          "internalType": "address",
          "name": "account",
          "type": "address"
        }
      ],
      "name": "WhitelistAdminRemoved",
      "type": "event"
    },
    {
      "anonymous": false,
      "inputs": [
        {
          "indexed": true,
          "internalType": "address",
          "name": "account",
          "type": "address"
        }
      ],
      "name": "WhitelistedAdded",
      "type": "event"
    },
    {
      "anonymous": false,
      "inputs": [
        {
          "indexed": true,
          "internalType": "address",
          "name": "account",
          "type": "address"
        }
      ],
      "name": "WhitelistedRemoved",
      "type": "event"
    },
    {
      "constant": true,
      "inputs": [],
      "name": "PERIOD_ONE_DAY_IN_SECONDS",
      "outputs": [
        {
          "internalType": "uint256",
          "name": "",
          "type": "uint256"
        }
      ],
      "payable": false,
      "stateMutability": "view",
      "type": "function"
    },
    {
      "constant": false,
      "inputs": [
        {
          "internalType": "address",
          "name": "account",
          "type": "address"
        }
      ],
      "name": "addWhitelistAdmin",
      "outputs": [],
      "payable": false,
      "stateMutability": "nonpayable",
      "type": "function"
    },
    {
      "constant": false,
      "inputs": [
        {
          "internalType": "address",
          "name": "account",
          "type": "address"
        }
      ],
      "name": "addWhitelisted",
      "outputs": [],
      "payable": false,
      "stateMutability": "nonpayable",
      "type": "function"
    },
    {
      "constant": true,
      "inputs": [
        {
          "internalType": "address",
          "name": "account",
          "type": "address"
        }
      ],
      "name": "isWhitelistAdmin",
      "outputs": [
        {
          "internalType": "bool",
          "name": "",
          "type": "bool"
        }
      ],
      "payable": false,
      "stateMutability": "view",
      "type": "function"
    },
    {
      "constant": true,
      "inputs": [
        {
          "internalType": "address",
          "name": "account",
          "type": "address"
        }
      ],
      "name": "isWhitelisted",
      "outputs": [
        {
          "internalType": "bool",
          "name": "",
          "type": "bool"
        }
      ],
      "payable": false,
      "stateMutability": "view",
      "type": "function"
    },
    {
      "constant": true,
      "inputs": [],
      "name": "paused",
      "outputs": [
        {
          "internalType": "bool",
          "name": "",
          "type": "bool"
        }
      ],
      "payable": false,
      "stateMutability": "view",
      "type": "function"
    },
    {
      "constant": false,
      "inputs": [
        {
          "internalType": "address",
          "name": "account",
          "type": "address"
        }
      ],
      "name": "removeWhitelisted",
      "outputs": [],
      "payable": false,
      "stateMutability": "nonpayable",
      "type": "function"
    },
    {
      "constant": false,
      "inputs": [],
      "name": "renounceWhitelistAdmin",
      "outputs": [],
      "payable": false,
      "stateMutability": "nonpayable",
      "type": "function"
    },
    {
      "constant": false,
      "inputs": [],
      "name": "renounceWhitelisted",
      "outputs": [],
      "payable": false,
      "stateMutability": "nonpayable",
      "type": "function"
    },
    {
      "constant": true,
      "inputs": [],
      "name": "token",
      "outputs": [
        {
          "internalType": "contract IERC20",
          "name": "",
          "type": "address"
        }
      ],
      "payable": false,
      "stateMutability": "view",
      "type": "function"
    },
    {
      "constant": true,
      "inputs": [
        {
          "internalType": "address",
          "name": "",
          "type": "address"
        }
      ],
      "name": "vestingSchedule",
      "outputs": [
        {
          "internalType": "uint256",
          "name": "start",
          "type": "uint256"
        },
        {
          "internalType": "uint256",
          "name": "end",
          "type": "uint256"
        },
        {
          "internalType": "uint256",
          "name": "amount",
          "type": "uint256"
        },
        {
          "internalType": "uint256",
          "name": "totalDrawn",
          "type": "uint256"
        },
        {
          "internalType": "uint256",
          "name": "lastDrawnAt",
          "type": "uint256"
        },
        {
          "internalType": "uint256",
          "name": "drawDownRate",
          "type": "uint256"
        }
      ],
      "payable": false,
      "stateMutability": "view",
      "type": "function"
    },
    {
      "constant": false,
      "inputs": [
        {
          "internalType": "address",
          "name": "_beneficiary",
          "type": "address"
        },
        {
          "internalType": "uint256",
          "name": "_amount",
          "type": "uint256"
        },
        {
          "internalType": "uint256",
          "name": "_start",
          "type": "uint256"
        },
        {
          "internalType": "uint256",
          "name": "_durationInDays",
          "type": "uint256"
        }
      ],
      "name": "createVestingSchedule",
      "outputs": [
        {
          "internalType": "bool",
          "name": "",
          "type": "bool"
        }
      ],
      "payable": false,
      "stateMutability": "nonpayable",
      "type": "function"
    },
    {
      "constant": false,
      "inputs": [],
      "name": "drawDown",
      "outputs": [
        {
          "internalType": "bool",
          "name": "",
          "type": "bool"
        }
      ],
      "payable": false,
      "stateMutability": "nonpayable",
      "type": "function"
    },
    {
      "constant": false,
      "inputs": [],
      "name": "pause",
      "outputs": [],
      "payable": false,
      "stateMutability": "nonpayable",
      "type": "function"
    },
    {
      "constant": false,
      "inputs": [],
      "name": "unpause",
      "outputs": [],
      "payable": false,
      "stateMutability": "nonpayable",
      "type": "function"
    },
    {
      "constant": true,
      "inputs": [],
      "name": "tokenBalance",
      "outputs": [
        {
          "internalType": "uint256",
          "name": "",
          "type": "uint256"
        }
      ],
      "payable": false,
      "stateMutability": "view",
      "type": "function"
    },
    {
      "constant": true,
      "inputs": [
        {
          "internalType": "address",
          "name": "_beneficiary",
          "type": "address"
        }
      ],
      "name": "vestingScheduleForBeneficiary",
      "outputs": [
        {
          "internalType": "uint256",
          "name": "_start",
          "type": "uint256"
        },
        {
          "internalType": "uint256",
          "name": "_end",
          "type": "uint256"
        },
        {
          "internalType": "uint256",
          "name": "_amount",
          "type": "uint256"
        },
        {
          "internalType": "uint256",
          "name": "_totalDrawn",
          "type": "uint256"
        },
        {
          "internalType": "uint256",
          "name": "_lastDrawnAt",
          "type": "uint256"
        },
        {
          "internalType": "uint256",
          "name": "_drawDownRate",
          "type": "uint256"
        },
        {
          "internalType": "uint256",
          "name": "_remainingBalance",
          "type": "uint256"
        }
      ],
      "payable": false,
      "stateMutability": "view",
      "type": "function"
    },
    {
      "constant": true,
      "inputs": [
        {
          "internalType": "address",
          "name": "_beneficiary",
          "type": "address"
        }
      ],
      "name": "availableDrawDownAmount",
      "outputs": [
        {
          "internalType": "uint256",
          "name": "_amount",
          "type": "uint256"
        },
        {
          "internalType": "uint256",
          "name": "_timeLastDrawn",
          "type": "uint256"
        },
        {
          "internalType": "uint256",
          "name": "_drawDownRate",
          "type": "uint256"
        }
      ],
      "payable": false,
      "stateMutability": "view",
      "type": "function"
    },
    {
      "constant": true,
      "inputs": [
        {
          "internalType": "address",
          "name": "_beneficiary",
          "type": "address"
        }
      ],
      "name": "scheduleStart",
      "outputs": [
        {
          "internalType": "uint256",
          "name": "",
          "type": "uint256"
        }
      ],
      "payable": false,
      "stateMutability": "view",
      "type": "function"
    },
    {
      "constant": true,
      "inputs": [
        {
          "internalType": "address",
          "name": "_beneficiary",
          "type": "address"
        }
      ],
      "name": "scheduleEnd",
      "outputs": [
        {
          "internalType": "uint256",
          "name": "",
          "type": "uint256"
        }
      ],
      "payable": false,
      "stateMutability": "view",
      "type": "function"
    },
    {
      "constant": true,
      "inputs": [
        {
          "internalType": "address",
          "name": "_beneficiary",
          "type": "address"
        }
      ],
      "name": "scheduleTotalTokens",
      "outputs": [
        {
          "internalType": "uint256",
          "name": "",
          "type": "uint256"
        }
      ],
      "payable": false,
      "stateMutability": "view",
      "type": "function"
    },
    {
      "constant": true,
      "inputs": [
        {
          "internalType": "address",
          "name": "_beneficiary",
          "type": "address"
        }
      ],
      "name": "totalDrawn",
      "outputs": [
        {
          "internalType": "uint256",
          "name": "",
          "type": "uint256"
        }
      ],
      "payable": false,
      "stateMutability": "view",
      "type": "function"
    },
    {
      "constant": true,
      "inputs": [
        {
          "internalType": "address",
          "name": "_beneficiary",
          "type": "address"
        }
      ],
      "name": "lastDrawnAt",
      "outputs": [
        {
          "internalType": "uint256",
          "name": "",
          "type": "uint256"
        }
      ],
      "payable": false,
      "stateMutability": "view",
      "type": "function"
    },
    {
      "constant": true,
      "inputs": [
        {
          "internalType": "address",
          "name": "_beneficiary",
          "type": "address"
        }
      ],
      "name": "drawDownRate",
      "outputs": [
        {
          "internalType": "uint256",
          "name": "",
          "type": "uint256"
        }
      ],
      "payable": false,
      "stateMutability": "view",
      "type": "function"
    },
    {
      "constant": true,
      "inputs": [
        {
          "internalType": "address",
          "name": "_beneficiary",
          "type": "address"
        }
      ],
      "name": "remainingBalance",
      "outputs": [
        {
          "internalType": "uint256",
          "name": "",
          "type": "uint256"
        }
      ],
      "payable": false,
      "stateMutability": "view",
      "type": "function"
    }
  ],
  "bytecode": "0x60806040523480156200001157600080fd5b5060405162001bf138038062001bf1833981810160405260208110156200003757600080fd5b50516200005f620000506001600160e01b03620000ac16565b6001600160e01b03620000b016565b6001600160a01b0381166200007357600080fd5b600380546001600160a01b0319166001600160a01b038316179055620000a53362000102602090811b6200052f17901c565b5062000335565b3390565b620000cb8160006200019660201b620014941790919060201c565b6040516001600160a01b038216907f22380c05984257a1cb900161c713dd71d39e74820f1aea43bd3f1bdd2096129990600090a250565b62000128620001196001600160e01b03620000ac16565b6001600160e01b036200023d16565b6200017f576040517f08c379a000000000000000000000000000000000000000000000000000000000815260040180806020018281038252604081526020018062001bb16040913960400191505060405180910390fd5b62000193816001600160e01b036200026016565b50565b620001ab82826001600160e01b03620002b216565b156200021857604080517f08c379a000000000000000000000000000000000000000000000000000000000815260206004820152601f60248201527f526f6c65733a206163636f756e7420616c72656164792068617320726f6c6500604482015290519081900360640190fd5b6001600160a01b0316600090815260209190915260409020805460ff19166001179055565b60006200025a826000620002b260201b620012621790919060201c565b92915050565b6200027b8160016200019660201b620014941790919060201c565b6040516001600160a01b038216907fee1504a83b6d4a361f4c1dc78ab59bfa30d6a3b6612c403e86bb01ef2984295f90600090a250565b60006001600160a01b03821662000315576040517f08c379a000000000000000000000000000000000000000000000000000000000815260040180806020018281038252602281526020018062001b8f6022913960400191505060405180910390fd5b506001600160a01b03166000908152602091909152604090205460ff1690565b61184a80620003456000396000f3fe608060405234801561001057600080fd5b50600436106101a35760003560e01c80638456cb59116100ee578063c760e68011610097578063da0ebf8e11610071578063da0ebf8e14610484578063f1b42195146104aa578063fc0c546a146104b2578063ffff6b04146104d6576101a3565b8063c760e68014610430578063d3a637f214610456578063d6cd94731461047c576101a3565b80639e1a4d19116100c85780639e1a4d19146103a4578063bb5f747b146103ac578063c570b835146103d2576101a3565b80638456cb5914610350578063845a770f146103585780638c31d4561461037e576101a3565b8063451c469a11610150578063634107f81161012a578063634107f8146102fc57806365281d15146103045780637362d9c81461032a576101a3565b8063451c469a146102b45780634c5a628c146102ec5780635c975abb146102f4576101a3565b80633af32abf116101815780633af32abf1461023a5780633f4ba83a146102745780633f4e8e801461027c576101a3565b806310154bad146101a857806315298b5e146101d0578063291d954914610214575b600080fd5b6101ce600480360360208110156101be57600080fd5b50356001600160a01b031661052f565b005b6101f6600480360360208110156101e657600080fd5b50356001600160a01b0316610586565b60408051938452602084019290925282820152519081900360600190f35b6101ce6004803603602081101561022a57600080fd5b50356001600160a01b03166105a2565b6102606004803603602081101561025057600080fd5b50356001600160a01b03166105f1565b604080519115158252519081900360200190f35b6101ce61060a565b6102606004803603608081101561029257600080fd5b506001600160a01b038135169060208101359060408101359060600135610697565b6102da600480360360208110156102ca57600080fd5b50356001600160a01b0316610a2b565b60408051918252519081900360200190f35b6101ce610a4a565b610260610a5c565b610260610a6c565b6102da6004803603602081101561031a57600080fd5b50356001600160a01b0316610cbe565b6101ce6004803603602081101561034057600080fd5b50356001600160a01b0316610d3f565b6101ce610d8e565b6102da6004803603602081101561036e57600080fd5b50356001600160a01b0316610e1c565b6102da6004803603602081101561039457600080fd5b50356001600160a01b0316610e37565b6102da610e55565b610260600480360360208110156103c257600080fd5b50356001600160a01b0316610eea565b6103f8600480360360208110156103e857600080fd5b50356001600160a01b0316610efc565b604080519788526020880196909652868601949094526060860192909252608085015260a084015260c0830152519081900360e00190f35b6102da6004803603602081101561044657600080fd5b50356001600160a01b0316610fa0565b6102da6004803603602081101561046c57600080fd5b50356001600160a01b0316610fbe565b6101ce610fdc565b6102da6004803603602081101561049a57600080fd5b50356001600160a01b0316610fec565b6102da61100a565b6104ba611011565b604080516001600160a01b039092168252519081900360200190f35b6104fc600480360360208110156104ec57600080fd5b50356001600160a01b0316611020565b604080519687526020870195909552858501939093526060850191909152608084015260a0830152519081900360c00190f35b61053f61053a611057565b610eea565b61057a5760405162461bcd60e51b815260040180806020018281038252604081526020018061179c6040913960400191505060405180910390fd5b6105838161105b565b50565b6000806000610594846110a3565b9250925092505b9193909250565b6105ad61053a611057565b6105e85760405162461bcd60e51b815260040180806020018281038252604081526020018061179c6040913960400191505060405180910390fd5b6105838161121a565b600061060460018363ffffffff61126216565b92915050565b61061a610615611057565b6105f1565b6106555760405162461bcd60e51b815260040180806020018281038252603a8152602001806117dc603a913960400191505060405180910390fd5b6003805460ff60a01b191690556040805133815290517f5db9ee0a495bf2e6ff9c91a7834c1ba4fdd244a5e8aa4e537bd38aeae4b073aa9181900360200190a1565b60006106a4610615611057565b6106df5760405162461bcd60e51b815260040180806020018281038252603a8152602001806117dc603a913960400191505060405180910390fd5b6001600160a01b03851661073a576040805162461bcd60e51b815260206004820152601b60248201527f62656e65666963696172792063616e6e6f7420626520656d7074790000000000604482015290519081900360640190fd5b6000841161078f576040805162461bcd60e51b815260206004820152601660248201527f616d6f756e742063616e6e6f7420626520656d70747900000000000000000000604482015290519081900360640190fd5b600082116107e4576040805162461bcd60e51b815260206004820152601860248201527f6475726174696f6e2063616e6e6f7420626520656d7074790000000000000000604482015290519081900360640190fd5b6001600160a01b0385166000908152600260208190526040909120015415610853576040805162461bcd60e51b815260206004820152601a60248201527f5363686564756c6520616c726561647920696e20666c69676874000000000000604482015290519081900360640190fd5b600354604080517f23b872dd0000000000000000000000000000000000000000000000000000000081523360048201523060248201526044810187905290516001600160a01b03909216916323b872dd916064808201926020929091908290030181600087803b1580156108c657600080fd5b505af11580156108da573d6000803e3d6000fd5b505050506040513d60208110156108f057600080fd5b505161092d5760405162461bcd60e51b815260040180806020018281038252602d8152602001806116af602d913960400191505060405180910390fd5b6000610942836201518063ffffffff6112c916565b90506040518060c00160405280858152602001610968838761132290919063ffffffff16565b8152602081018790526000604082018190526060820152608001610992878463ffffffff61137c16565b90526001600160a01b038716600081815260026020818152604092839020855181558582015160018201558584015192810192909255606085015160038301556080850151600483015560a0909401516005909101558051868152905187938993927f5ab0cb75fe24f04dbfe14b847f8579bc91baa153ee5b2758fcfa59f33675b162929081900390910190a450600195945050505050565b6001600160a01b03166000908152600260208190526040909120015490565b610a5a610a55611057565b6113be565b565b600354600160a01b900460ff1681565b600354600090600160a01b900460ff1615610ab85760405162461bcd60e51b81526004018080602001828103825260348152602001806116dc6034913960400191505060405180910390fd5b33600090815260026020819052604090912090810154610b095760405162461bcd60e51b81526004018080602001828103825260288152602001806117106028913960400191505060405180910390fd5b6000610b14336110a3565b5050905060008111610b6d576040805162461bcd60e51b815260206004820152601c60248201527f4e6f20616c6c6f77616e6365206c657420746f20776974686472617700000000604482015290519081900360640190fd5b610b75611406565b60048301556003820154610b8f908263ffffffff61132216565b60038084019190915554604080517fa9059cbb0000000000000000000000000000000000000000000000000000000081523360048201526024810184905290516001600160a01b039092169163a9059cbb916044808201926020929091908290030181600087803b158015610c0357600080fd5b505af1158015610c17573d6000803e3d6000fd5b505050506040513d6020811015610c2d57600080fd5b5051610c80576040805162461bcd60e51b815260206004820152601960248201527f556e61626c6520746f207472616e7366657220746f6b656e7300000000000000604482015290519081900360640190fd5b610c88611406565b604051829033907fe201e6531c39b0640b808074009b8aee94328121338eb569f55de6ccb3c317ac90600090a460019250505090565b6000610cc8611678565b506001600160a01b038216600090815260026020818152604092839020835160c08101855281548152600182015492810192909252918201549281018390526003820154606082018190526004830154608083015260059092015460a082015291610d389163ffffffff61140a16565b9392505050565b610d4a61053a611057565b610d855760405162461bcd60e51b815260040180806020018281038252604081526020018061179c6040913960400191505060405180910390fd5b6105838161144c565b610d99610615611057565b610dd45760405162461bcd60e51b815260040180806020018281038252603a8152602001806117dc603a913960400191505060405180910390fd5b6003805460ff60a01b1916600160a01b1790556040805133815290517f62e78cea01bee320cd4e420270b5ea74000d11b0c9f74754ebdbfc544b05a2589181900360200190a1565b6001600160a01b031660009081526002602052604090205490565b6001600160a01b031660009081526002602052604090206005015490565b600354604080517f70a0823100000000000000000000000000000000000000000000000000000000815230600482015290516000926001600160a01b0316916370a08231916024808301926020929190829003018186803b158015610eb957600080fd5b505afa158015610ecd573d6000803e3d6000fd5b505050506040513d6020811015610ee357600080fd5b5051905090565b6000610604818363ffffffff61126216565b6000806000806000806000610f0f611678565b506001600160a01b038816600090815260026020818152604092839020835160c081018552815480825260018301549382018490529382015494810185905260038201546060820181905260048301546080830181905260059093015460a083018190529195929091610f88848463ffffffff61140a16565b959f949e50929c50909a509850965090945092505050565b6001600160a01b031660009081526002602052604090206001015490565b6001600160a01b031660009081526002602052604090206003015490565b610a5a610fe7611057565b61121a565b6001600160a01b031660009081526002602052604090206004015490565b6201518081565b6003546001600160a01b031681565b6002602081905260009182526040909120805460018201549282015460038301546004840154600590940154929493919290919086565b3390565b61106c60018263ffffffff61149416565b6040516001600160a01b038216907fee1504a83b6d4a361f4c1dc78ab59bfa30d6a3b6612c403e86bb01ef2984295f90600090a250565b60008060006110b0611678565b506001600160a01b038416600090815260026020818152604092839020835160c08101855281548152600182015492810192909252918201549281019290925260038101546060830152600481015460808301526005015460a0820152611115611406565b8151111561116a576040805162461bcd60e51b815260206004820152601460248201527f5363686564756c65206e6f742073746172746564000000000000000000000000604482015290519081900360640190fd5b8060200151611177611406565b11156111b157600061119a8260600151836040015161140a90919063ffffffff16565b6080909201519194509092506000915061059b9050565b600081608001516000146111c95781608001516111cc565b81515b905060006111e8826111dc611406565b9063ffffffff61140a16565b905060006112038460a00151836112c990919063ffffffff16565b60a094909401519398929750929550909350505050565b61122b60018263ffffffff61151516565b6040516001600160a01b038216907f270d9b30cf5b0793bbfd54c9d5b94aeb49462b8148399000265144a8722da6b690600090a250565b60006001600160a01b0382166112a95760405162461bcd60e51b815260040180806020018281038252602281526020018061177a6022913960400191505060405180910390fd5b506001600160a01b03166000908152602091909152604090205460ff1690565b6000826112d857506000610604565b828202828482816112e557fe5b0414610d385760405162461bcd60e51b81526004018080602001828103825260218152602001806117596021913960400191505060405180910390fd5b600082820183811015610d38576040805162461bcd60e51b815260206004820152601b60248201527f536166654d6174683a206164646974696f6e206f766572666c6f770000000000604482015290519081900360640190fd5b6000610d3883836040518060400160405280601a81526020017f536166654d6174683a206469766973696f6e206279207a65726f00000000000081525061157c565b6113cf60008263ffffffff61151516565b6040516001600160a01b038216907f0a8eb35e5ca14b3d6f28e4abf2f128dbab231a58b56e89beb5d636115001e16590600090a250565b4290565b6000610d3883836040518060400160405280601e81526020017f536166654d6174683a207375627472616374696f6e206f766572666c6f77000081525061161e565b61145d60008263ffffffff61149416565b6040516001600160a01b038216907f22380c05984257a1cb900161c713dd71d39e74820f1aea43bd3f1bdd2096129990600090a250565b61149e8282611262565b156114f0576040805162461bcd60e51b815260206004820152601f60248201527f526f6c65733a206163636f756e7420616c72656164792068617320726f6c6500604482015290519081900360640190fd5b6001600160a01b0316600090815260209190915260409020805460ff19166001179055565b61151f8282611262565b61155a5760405162461bcd60e51b81526004018080602001828103825260218152602001806117386021913960400191505060405180910390fd5b6001600160a01b0316600090815260209190915260409020805460ff19169055565b600081836116085760405162461bcd60e51b81526004018080602001828103825283818151815260200191508051906020019080838360005b838110156115cd5781810151838201526020016115b5565b50505050905090810190601f1680156115fa5780820380516001836020036101000a031916815260200191505b509250505060405180910390fd5b50600083858161161457fe5b0495945050505050565b600081848411156116705760405162461bcd60e51b81526020600482018181528351602484015283519092839260449091019190850190808383600083156115cd5781810151838201526020016115b5565b505050900390565b6040518060c00160405280600081526020016000815260200160008152602001600081526020016000815260200160008152509056fe556e61626c6520746f207472616e7366657220746f6b656e7320746f2076657374696e6720636f6e74726163744d6574686f642063616e6e6f7420626520696e766f6b656420617320636f6e747261637420686173206265656e207061757365645468657265206973206e6f207363686564756c652063757272656e746c7920696e20666c69676874526f6c65733a206163636f756e7420646f6573206e6f74206861766520726f6c65536166654d6174683a206d756c7469706c69636174696f6e206f766572666c6f77526f6c65733a206163636f756e7420697320746865207a65726f206164647265737357686974656c69737441646d696e526f6c653a2063616c6c657220646f6573206e6f742068617665207468652057686974656c69737441646d696e20726f6c6557686974656c6973746564526f6c653a2063616c6c657220646f6573206e6f742068617665207468652057686974656c697374656420726f6c65a265627a7a72315820fc72705e6277358482bcd2d316041cefe48ff4a5945070925ced3c43a584a4b764736f6c634300050c0032526f6c65733a206163636f756e7420697320746865207a65726f206164647265737357686974656c69737441646d696e526f6c653a2063616c6c657220646f6573206e6f742068617665207468652057686974656c69737441646d696e20726f6c65",
  "source": "pragma solidity ^0.5.12;\n\nimport \"@openzeppelin/contracts/access/roles/WhitelistedRole.sol\";\nimport \"@openzeppelin/contracts/math/SafeMath.sol\";\nimport \"@openzeppelin/contracts/token/ERC20/IERC20.sol\";\n\ncontract VestingContract is WhitelistedRole {\n    using SafeMath for uint256;\n\n    // TODO re-entrency() attack vectors\n    event Paused(address account);\n    event Unpaused(address account);\n\n    event ScheduleCreated(\n        address indexed _beneficiary,\n        uint256 indexed _amount,\n        uint256 indexed _start,\n        uint256 _duration\n    );\n\n    event DrawDown(\n        address indexed _beneficiary,\n        uint256 indexed _amount,\n        uint256 indexed _time\n    );\n\n    struct Schedule {\n        uint256 start;\n        uint256 end;\n        uint256 amount;\n        uint256 totalDrawn;\n        uint256 lastDrawnAt;\n        uint256 drawDownRate;\n    }\n\n    // Vested address to its schedule\n    mapping(address => Schedule) public vestingSchedule;\n\n    // The CUDO token contract\n    IERC20 public token;\n\n    // All durations are based in number days\n    uint256 public constant PERIOD_ONE_DAY_IN_SECONDS = 1 days;\n\n    bool public paused;\n\n    ///////////////\n    // Modifiers //\n    ///////////////\n    modifier whenNotPaused() {\n        require(!paused, \"Method cannot be invoked as contract has been paused\");\n        _;\n    }\n\n    constructor(IERC20 _token) public {\n        require(address(_token) != address(0));\n        token = _token;\n        super.addWhitelisted(msg.sender);\n    }\n\n    function createVestingSchedule(address _beneficiary, uint256 _amount, uint256 _start, uint256 _durationInDays) onlyWhitelisted external returns (bool) {\n        require(_beneficiary != address(0), \"beneficiary cannot be empty\");\n        require(_amount > 0, \"amount cannot be empty\");\n        require(_durationInDays > 0, \"duration cannot be empty\");\n\n        // Ensure one per address\n        require(vestingSchedule[_beneficiary].amount == 0, \"Schedule already in flight\");\n\n        // Bring over the tokens\n        require(token.transferFrom(msg.sender, address(this), _amount), \"Unable to transfer tokens to vesting contract\");\n\n        // Create schedule\n        uint256 _durationInSecs = _durationInDays.mul(PERIOD_ONE_DAY_IN_SECONDS);\n        vestingSchedule[_beneficiary] = Schedule({\n            start : _start,\n            end : _start.add(_durationInSecs),\n            amount : _amount,\n            totalDrawn : 0, // no tokens drawn yet\n            lastDrawnAt : 0, // never invoked\n            drawDownRate : _amount.div(_durationInSecs)\n            });\n\n        emit ScheduleCreated(_beneficiary, _amount, _start, _durationInDays);\n\n        return true;\n    }\n\n    function drawDown() whenNotPaused external returns (bool) {\n        Schedule storage schedule = vestingSchedule[msg.sender];\n        require(schedule.amount > 0, \"There is no schedule currently in flight\");\n\n        (uint256 amount,,) = _availableDrawDownAmount(msg.sender);\n        require(amount > 0, \"No allowance let to withdraw\");\n\n        // Update last drawn\n        schedule.lastDrawnAt = _getNow();\n\n        // Add up total amount drawn\n        schedule.totalDrawn = schedule.totalDrawn.add(amount);\n\n        // Issue tokens to caller\n        require(token.transfer(msg.sender, amount), \"Unable to transfer tokens\");\n\n        emit DrawDown(msg.sender, amount, _getNow());\n\n        return true;\n    }\n\n    function pause() external onlyWhitelisted {\n        paused = true;\n        emit Paused(msg.sender);\n    }\n\n    function unpause() external onlyWhitelisted {\n        paused = false;\n        emit Unpaused(msg.sender);\n    }\n\n    ///////////////\n    // Accessors //\n    ///////////////\n\n    function tokenBalance() public view returns (uint256) {\n        return token.balanceOf(address(this));\n    }\n\n    function vestingScheduleForBeneficiary(address _beneficiary)\n    external view\n    returns (uint256 _start, uint256 _end, uint256 _amount, uint256 _totalDrawn, uint256 _lastDrawnAt, uint256 _drawDownRate, uint256 _remainingBalance) {\n        Schedule memory schedule = vestingSchedule[_beneficiary];\n        return (\n        schedule.start,\n        schedule.end,\n        schedule.amount,\n        schedule.totalDrawn,\n        schedule.lastDrawnAt,\n        schedule.drawDownRate,\n        schedule.amount.sub(schedule.totalDrawn)\n        );\n    }\n\n    function availableDrawDownAmount(address _beneficiary) external view returns (uint256 _amount, uint256 _timeLastDrawn, uint256 _drawDownRate) {\n        return _availableDrawDownAmount(_beneficiary);\n    }\n\n    function scheduleStart(address _beneficiary) external view returns (uint256) {\n        return vestingSchedule[_beneficiary].start;\n    }\n\n    function scheduleEnd(address _beneficiary) external view returns (uint256) {\n        return vestingSchedule[_beneficiary].end;\n    }\n\n    function scheduleTotalTokens(address _beneficiary) external view returns (uint256) {\n        return vestingSchedule[_beneficiary].amount;\n    }\n\n    function totalDrawn(address _beneficiary) external view returns (uint256) {\n        return vestingSchedule[_beneficiary].totalDrawn;\n    }\n\n    function lastDrawnAt(address _beneficiary) external view returns (uint256) {\n        return vestingSchedule[_beneficiary].lastDrawnAt;\n    }\n\n    function drawDownRate(address _beneficiary) external view returns (uint256) {\n        return vestingSchedule[_beneficiary].drawDownRate;\n    }\n\n    function remainingBalance(address _beneficiary) external view returns (uint256) {\n        Schedule memory schedule = vestingSchedule[_beneficiary];\n        return schedule.amount.sub(schedule.totalDrawn);\n    }\n\n    //////////////\n    // Internal //\n    //////////////\n\n    function _getNow() internal view returns (uint256) {\n        return block.timestamp;\n    }\n\n    function _availableDrawDownAmount(address _beneficiary) internal view returns (uint256 _amount, uint256 _timeLastDrawn, uint256 _drawDownRate) {\n        Schedule memory schedule = vestingSchedule[_beneficiary];\n        require(schedule.start <= _getNow(), \"Schedule not started\");\n\n        if (_getNow() > schedule.end) {\n            uint256 amount = schedule.amount.sub(schedule.totalDrawn);\n            return (amount, schedule.lastDrawnAt, 0);\n        }\n\n        ////////////////////////\n        // Schedule is active //\n        ////////////////////////\n\n        // Work out when the last invocation was\n        uint256 timeLastDrawn = schedule.lastDrawnAt == 0 ? schedule.start : schedule.lastDrawnAt;\n\n        // Find out how much time has past since last invocation\n        uint256 timePassedSinceLastInvocation = _getNow().sub(timeLastDrawn);\n\n        // Work out how many due tokens - time passed * rate per seconds\n        uint256 amount = timePassedSinceLastInvocation.mul(schedule.drawDownRate);\n\n        return (amount, timeLastDrawn, schedule.drawDownRate);\n    }\n}\n",
  "sourcePath": "/Users/andy/workspace/cudos-token/contracts/vesting/VestingContract.sol",
  "compiler": {
    "name": "solc",
    "version": "0.5.12+commit.7709ece9.Emscripten.clang"
  },
  "schemaVersion": "3.0.16",
  "updatedAt": "2019-12-11T09:43:39.056Z",
  "devdoc": {
    "methods": {}
  },
  "userdoc": {
    "methods": {
      "tokenBalance()": {
        "notice": "////////////"
      }
    }
  }
}